:100000000C948F010C94AC010C94AC010C94AC01D9
:100010000C94AC010C94AC010C9419050C94AC013B
:100020000C94AC010C94AC010C94AC010C94AC019C
:100030000C94AC010C94AC010C94AC010C94AC018C
:100040000C94AC010C94AC010C94AC010C94AC017C
:100050000C94AC01B901BF01C501CB01D101D7019D
:10006000DD01E301E901EF01F501FB0101020702F6
:100070000D02130219021F0225022B023102370260
:100080003D02430249024F0255025B0261026702D0
:100090006D02730279027F0285028B029102970240
:1000A0009D02A302A902AF02B502BB02C102C702B0
:1000B000CD02D302D902EA02F002F602FC020203E8
:1000C00008030E0314031A03200326032C03320330
:1000D00038033E0344034A03500356035C036203A0
:1000E00068036E0374037A03800386038C03920310
:1000F00098039E03A403AA03B003B603BC03C20380
:10010000C803CE03D403DA03E003E603EC03F203EF
:10011000F803FE0304040A04C00838093809380942
:1001200038093809DA0838093809380961083809FE
:10013000550838093809CE08FE083809E6080A09C2
:1001400038093809610838095B08F20838093809A4
:1001500038093809380916093809380961082209A7
:1001600026092A0938093809380961082E0932098F
:100170003509380938096108380938093809380952
:100180003809380938093809380938093809380967
:100190003809380938093809380938093809380957
:1001A0003809380938093809380938093809380947
:1001B0003809380938093809380938093809380937
:1001C0003809380938093809380938093809380927
:1001D000380938093809380938093809B008B00829
:1001E000B008380938093809380938093809380990
:1001F00038093809380938093809380938093809F7
:1002000038093809380938093809380938093809E6
:1002100038093809380938093809380938093809D6
:1002200038093809380938093809380938093809C6
:1002300038093809380938093809380938093809B6
:1002400038093809380938093809380938093809A6
:100250003809380938093809380938093809380996
:100260003809380938093809380938093809380986
:100270003809380938093809380938093809380976
:100280003809380938093809380938093809380966
:100290003809380938093809380938093809380956
:1002A00038093809B408B808BC08450A850A4A0A5A
:1002B000850A4F0A850A540A850A590A850A5E0A80
:1002C000850A630A850A850A850A850A680A850AF5
:1002D000850A850A850A6D0A850A850A850A850ABE
:1002E000720A850A850A850A850A850A850A850AA9
:1002F000850A850A770A850A850A850A850A850A94
:10030000850A850A850A850A7C0A850A850A850A7E
:10031000850A850A850A850A850A850A810A1124C3
:100320001FBECFE5D4E0DEBFCDBF10E0A0E6B0E059
:10033000EEE6F7E102C005900D92A637B107D9F7B6
:1003400020E0A6E7B0E001C01D92A63AB207E1F7AF
:100350000E94900A0C94B50B0C94000090E0FC01F4
:100360003197E133F10508F029C1E65DFF4F0C94A8
:10037000DA0AE0E8F0E08081806480830895E1E8B3
:10038000F0E08081806480830895EDE7F0E0808173
:10039000806480830895ECE7F0E08081806480834E
:1003A0000895E2E8F0E08081806480830895E2E8C7
:1003B000F0E08081806280830895ECE7F0E0808146
:1003C000806280830895EDE7F0E080818062808321
:1003D0000895EEE7F0E08081806280830895E0E890
:1003E000F0E08081806280830895EFE7F0E0808113
:1003F000806280830895E1E8F0E0808180628083FC
:100400000895EFE7F0E08081806480830895EFE74E
:10041000F0E08081846080830895ECE7F0E08081E3
:10042000846080830895E2E8F0E0808184608083C6
:100430000895E1E8F0E08081846080830895E2E837
:10044000F0E08081886080830895ECE7F0E08081AF
:10045000886080830895EFE7F0E080818860808382
:100460000895EDE7F0E08081886080830895EDE7EE
:10047000F0E08081806180830895E2E8F0E080818F
:10048000806180830895ECE7F0E080818061808363
:100490000895EDE7F0E08081846080830895E0E8CE
:1004A000F0E08081846080830895E0E8F0E080815E
:1004B000816080830895EDE7F0E080818160808332
:1004C0000895ECE7F0E08081816080830895E2E8A0
:1004D000F0E08081816080830895E1E8F0E0808130
:1004E000816080830895EFE7F0E080818160808300
:1004F0000895EEE7F0E08081816080830895EFE762
:10050000F0E08081826080830895E1E8F0E08081FE
:10051000826080830895E0E8F0E0808182608083DB
:100520000895EEE7F0E08081806480830895E1E83B
:10053000F0E08081886080830895EEE7F0E08081BC
:10054000806180830895E0E8F0E0808188608083A6
:100550000895E0E8F0E08081806180830895EFE70E
:10056000F0E08081806180830895E1E8F0E080819F
:10057000806180830895EEE7F0E08081846080836D
:100580000895EEE7F0E08081886080830895EDE7CC
:10059000F0E08081826080830895EEE7F0E0808162
:1005A000826080830895ECE7F0E080818260808340
:1005B0000895E2E8F0E0808182608083089590E011
:1005C000FC013197E133F10508F029C1E55AFF4FED
:1005D0000C94DA0AE0E8F0E080818F7B8083089554
:1005E000E1E8F0E080818F7B80830895EDE7F0E023
:1005F00080818F7B80830895ECE7F0E080818F7BA2
:1006000080830895E2E8F0E080818F7B8083089505
:10061000E2E8F0E080818F7D80830895ECE7F0E0F0
:1006200080818F7D80830895EDE7F0E080818F7D6C
:1006300080830895EEE7F0E080818F7D80830895C8
:10064000E0E8F0E080818F7D80830895EFE7F0E0BF
:1006500080818F7D80830895E1E8F0E080818F7D47
:1006600080830895EFE7F0E080818F7B8083089599
:10067000EFE7F0E080818B7F80830895ECE7F0E086
:1006800080818B7F80830895E2E8F0E080818B7F1A
:1006900080830895E1E8F0E080818B7F8083089576
:1006A000E2E8F0E08081877F80830895ECE7F0E066
:1006B0008081877F80830895EFE7F0E08081877FE6
:1006C00080830895EDE7F0E08081877F808308953F
:1006D000EDE7F0E080818F7E80830895E2E8F0E02E
:1006E00080818F7E80830895ECE7F0E080818F7EAB
:1006F00080830895EDE7F0E080818B7F808308950B
:10070000E0E8F0E080818B7F80830895E0E8F0E00E
:1007100080818E7F80830895EDE7F0E080818E7F79
:1007200080830895ECE7F0E080818E7F80830895D8
:10073000E2E8F0E080818E7F80830895E1E8F0E0D8
:1007400080818E7F80830895EFE7F0E080818E7F47
:1007500080830895EEE7F0E080818E7F80830895A6
:10076000EFE7F0E080818D7F80830895E1E8F0E09D
:1007700080818D7F80830895E0E8F0E080818D7F27
:1007800080830895EEE7F0E080818F7B8083089579
:10079000E1E8F0E08081877F80830895EEE7F0E074
:1007A00080818F7E80830895E0E8F0E08081877FFC
:1007B00080830895E0E8F0E080818F7E8083089553
:1007C000EFE7F0E080818F7E80830895E1E8F0E03C
:1007D00080818F7E80830895EEE7F0E080818B7FBB
:1007E00080830895EEE7F0E08081877F808308951D
:1007F000EDE7F0E080818D7F80830895EEE7F0E003
:1008000080818D7F80830895ECE7F0E080818D7F8B
:1008100080830895E2E8F0E080818D7F80830895F1
:100820009E9B06C08091760081608093760005C013
:10083000809176008E7F809376009F9906C080918C
:10084000760082608093760005C0809176008D7F6F
:1008500080937600999B06C0809176008460809397
:10086000760005C0809176008B7F809376009B99FF
:1008700006C08091760088608093760005C08091E4
:100880007600877F809376009A9906C080917600E3
:1008900080618093760005C0809176008F7E809382
:1008A00076009C9B06C080917600806280937600E3
:1008B00005C0809176008F7D80937600879B06C06F
:1008C0008091760080648093760005C080917600E8
:1008D0008F7B80937600989906C08091760080681F
:1008E000809376000895809176008F7780937600CC
:1008F0000895ECE7F0E080E090E041E050E022B3C2
:10090000207822BB282F619132B3362B32BB853041
:1009100050F43BB330783BBB6BB3DC01AF55BF4FFA
:100920003C91362B3BBB68B3DA0102C0AA0FBB1F58
:100930002A95E2F79D013A2F3095362338BBAFE177
:10094000B3E01197F1F700C0000038B3232B28BBA8
:1009500001968730910599F608950F931F93CF93D1
:10096000DF93FC01842F992787FD9095062F10E0D7
:100970000150110908171907ACF5EC01CF55DF4FED
:100980009F01ADECBCEC0E94E00A9C0136952795D6
:100990003695279536952795C901880F991F220FFF
:1009A000331F220F331F220F331F280F391FDF0180
:1009B000A21BB30BAC59BF4F8C9188839F01ADEC48
:1009C000BCEC0E94E00AFC01F695E795F695E795E8
:1009D000F695E7954150842F992787FD9095081744
:1009E00019075CF2DF91CF911F910F910895F89450
:1009F00099E79093A10090E59093A2009093A300B3
:100A000044E063E090E00E94AD040E947904FDCFD1
:100A10009C0123703327232B49F44FE1489F900119
:100A2000499F300D11243BBD2ABD089581E00E94ED
:100A3000F7041F920F920FB60F9211248F939F937A
:100A40008091790090917A00019690937A0080933A
:100A50007900B79B03C081E0809378009F918F91CC
:100A60000F900FBE0F901F90189580E991E00E94A3
:100A7000080510927A001092790080E090E08824B6
:100A80008394912C0F2EF1EAAF2EF0E0BF2EF02DC3
:100A90000F2EF2EACF2EF0E0DF2EF02D0F2EF3EA2C
:100AA000EF2EF0E0FF2EF02D04EA10E0C5EAD0E0D2
:100AB000940102C0220F331F8A95E2F7F5012083CB
:100AC000F6012083F7012083F801208328830E9408
:100AD00079048091790090917A008730910540F3F4
:100AE00010927A001092790080E090E00F2EF1EAE7
:100AF000AF2EF0E0BF2EF02D0F2EF2EACF2EF0E059
:100B0000DF2EF02D0F2EF3EAEF2EF0E0FF2EF02D6A
:100B100004EA10E0C5EAD0E0FC01EC59FF4F808107
:100B2000F5018083F6018083F7018083F8018083DB
:100B300088830E9479048091790090917A008131B4
:100B4000910550F310927A001092790080E090E0C5
:100B50000E94AE0144E063E08091790090917A00B8
:100B60000E94AD040E9479048091790090917A00EE
:100B70008233910568F39D9BC4C00E9479049D99BE
:100B8000FCCF10927A0010927900BFC00E94DF0261
:100B900044E063E08091790090917A000E94AD0476
:100BA0000E9479048091790090917A0082339105B6
:100BB00068F31092A4001092A500F894772473941F
:100BC0000F2EF1EAAF2EF0E0BF2EF02D0F2EFFE733
:100BD0008F2EF02D0F2EF2EACF2EF0E0DF2EF02D2B
:100BE0000F2EF3EAEF2EF0E0FF2EF02D0F2EF4EA99
:100BF0004F2EF0E05F2EF02DC5EAD0E09D9B62C045
:100C0000172D812F0E94DF021F5F1233D1F70E9440
:100C100010048091760080FF04C083E00E94AE0142
:100C200003C085E20E94AE018091760081FF04C07E
:100C300082E10E94AE0103C086E20E94AE01809173
:100C4000760082FF04C089E00E94AE0103C087E203
:100C50000E94AE018091760083FF04C085E10E946E
:100C6000AE0103C088E20E94AE018091760084FF4D
:100C700004C08CE10E94AE0103C08CE20E94AE0170
:100C80008091760085FF04C083E10E94AE0103C01D
:100C90008DE20E94AE018091760086FF04C086E15D
:100CA0000E94AE0103C08EE20E94AE0180917600E8
:100CB000882324F482E20E94AE010BC08FE20E94DE
:100CC000AE0107C0172D812F0E94AE011F5F1233A6
:100CD000D1F7CF9B0AC0F5011082F6011082F7010F
:100CE0001082F2018082888209C0F5018082F601BB
:100CF0008082F7018082F201108218820E947904BA
:100D00007DCF10927A001092790080E090E03ECF83
:100D10002091760080E090E090917900822B0E94F3
:100D2000560B08953F924F925F926F927F928F92EF
:100D30009F92AF92BF92CF92DF92EF92FF920F936A
:100D40001F93CF93DF9389B38078582E3090A20001
:100D500081111BC010927700E3E8F0E081EA90E097
:100D600010823396E817F907D9F71092A100109274
:100D7000A2001092A300ECE7F0E083E890E011926B
:100D8000E817F907E1F710927B008091770044E0C3
:100D900063E090E00E94AD0488EC90E00E940805BA
:100DA00010927A001092790002EA10E00F2EF3E818
:100DB000EF2EF0E0FF2EF02D0F2EF1EA6F2EF0E077
:100DC0007F2EF02D412C0F2EF1EAAF2EF0E0BF2E3A
:100DD000F02D0F2EF3EACF2EF0E0DF2EF02D0F2EA8
:100DE000FCE78F2EF0E09F2EF02DC3E8D0E00E94AC
:100DF0007904552009F1CF9B47C08091790080FF8D
:100E000007C0F801308280917B000E94AE013CC097
:100E1000F801108280917B000E94DF0235C0F8014A
:100E2000308280917B000E94AE01F70110823396E0
:100E3000E615F705D9F7542CCF991DC09D991BC015
:100E4000F70110823396E615F705D9F7F501108200
:100E5000F8011082F6011082F4011192EC17FD07DF
:100E6000E1F740927B004092770044E063E080E04D
:100E700090E00E94AD04CF9BBACF5110B8CF8091C3
:100E800077008111B4CF03C0CF9BC9CFD5CFDF91FD
:100E9000CF911F910F91FF90EF90DF90CF90BF9077
:100EA000AF909F908F907F906F905F904F903F900A
:100EB0000895AF92BF92CF92DF92EF92FF920F937D
:100EC0001F93CF93DF9380E590E00E940805109276
:100ED0007A00109279000F2EF9E7CF2EF0E0DF2E86
:100EE000F02D0F2EF1EAEF2EF0E0FF2EF02D02EAAA
:100EF00010E0C3EAD0E06894AA24A3F80F2EF8E427
:100F0000BF2EF02D0E9479048091790090917A0093
:100F10008130910561F4F701808181608083F8015F
:100F2000808181608083888181608883EBCF82307B
:100F3000910561F4F701808181648083F8018081EB
:100F400081648083888181648883DCCF83309105CC
:100F500061F4F701808189648083F801808189646C
:100F60008083888189648883CDCF9C012450310996
:100F70002C30310570F483500E94AE01F60180815F
:100F8000875F0E94AE01F60180818B5E0E94AE01F8
:100F9000B9CF8431910531F4F701B082F801B08204
:100FA000B882B0CF8531910531F4F701A082F80104
:100FB000A082A882A7CF8631910531F4F701108273
:100FC000F801108218829ECF9C01275131092131EE
:100FD000310570F486510E94DF02F60180818A504B
:100FE0000E94DF02F60180818E5F0E94DF028ACFBD
:100FF000899708F487CFDF91CF911F910F91FF90D0
:10100000EF90DF90CF90BF90AF9008952F923F92D6
:101010004F925F926F927F928F929F92AF92BF9208
:10102000CF92DF92EF92FF920F931F93CF93DF93B4
:10103000C3E8D0E00F2EF5E8EF2EF0E0FF2EF02D04
:1010400000E010E00F2EF0E34F2EF02D68945524B1
:1010500055F80F2EF1EA6F2EF0E07F2EF02D0F2EB7
:10106000F3EA8F2EF0E09F2EF02D0F2EF2EA2F2EB6
:10107000F0E03F2EF02D6E018881882309F403C132
:101080005701F70180810E94DF020E941004F701DE
:101090002081822F90E0FC013297E93CF10508F0B5
:1010A000E7C0E457FF4F0C94DA0AF10110828FE099
:1010B000F7018083E0C0F40110828BE1F7018083A7
:1010C000DAC01882F70180813197408150E04456A0
:1010D0005109282F30E042175307E1F10E94AE0179
:1010E000F801EE0FFF1FE00FF11FED57FF4F828158
:1010F00080937B001092A1001092A3008181883818
:1011000019F128F4803741F08C3791F0C7C08F383F
:1011100049F0853999F0C2C087E78093A20080E04A
:1011200090E0C1C08CE78093A20080E090E0BBC05B
:1011300089E38093A20080E090E0B5C08EE58093C3
:10114000A20080E090E0AFC089E78093A20080E039
:1011500090E0A9C0809177008F5F809377008BC06B
:101160002C59F701208387C081E0F701808383C079
:101170008DE0F70180837FC089E1F70180837BC028
:10118000F30110828091760080FF04C083E0F701B4
:10119000808371C085E2F70180836DC08091760005
:1011A00081FF04C082E1F701808365C086E2F70118
:1011B000808361C08091760082FF04C089E0F701DE
:1011C000808359C087E2F701808355C08091760003
:1011D00083FF04C085E1F70180834DC088E2F701F9
:1011E000808349C08091760084FF04C08CE1F701C0
:1011F000808341C08CE2F70180833DC080917600FE
:1012000085FF04C083E1F701808335C08DE2F701DB
:10121000808331C08091760086FF04C086E1F701AB
:10122000808329C08EE2F701808325C080917600FB
:10123000882324F482E2F70180831DC08FE2F70146
:10124000808319C080E1F701808315C087E0F70132
:10125000808311C089E2F70180830DC081E1F7012D
:10126000808309C0F701508206C0F701408203C0A5
:101270002F5FF5012083F6018081882321F0F5019D
:1012800080810E94AE010F5F1F4F2396F3E0EF0EA7
:10129000F11C0A30110509F0EECE03C080E090E0A9
:1012A00002C081E090E0DF91CF911F910F91FF90FC
:1012B000EF90DF90CF90BF90AF909F908F907F90F6
:1012C0006F905F904F903F902F900895EF92FF9214
:1012D0000F931F93CF93DF938091830081117FC081
:1012E000C0E0D0E0FE01EE0FFF1FEC0FFD1FED5739
:1012F000FF4F81E080830F2EF3E0EF2EF12CF02DD5
:101300008E01000F111F0C0F1D1F0B571F4F0E9446
:10131000510BB7010E94C60AE4E6E80FD801EC932E
:10132000F0E0E35CFF4F80818111F1CF0E94510B0F
:1013300065E070E00E94C60A282FFE01EE0FFF1F35
:10134000EC0FFD1FED57FF4F8183E281F0E0E35C7E
:10135000FF4F9927DC01AC59BF4F1A968C918083BF
:101360002230F9F028F4222341F0213081F043C0EB
:10137000233009F1243049F13EC0CE01880F991F76
:10138000C80FD91FCD57DF4F80E7898334C0CE0106
:10139000880F991FC80FD91FCD57DF4F8FE889835A
:1013A0002AC0CE01880F991FC80FD91FCD57DF4F14
:1013B0008CE7898320C0CE01880F991FC80FD91FE1
:1013C000CD57DF4F85E9898316C0CE01880F991F5D
:1013D000C80FD91FCD57DF4F88E889830CC086E836
:1013E00090E0C0E0D0E021960396FC013397208185
:1013F0002111F9CF77CFDF91CF911F910F91FF90FE
:10140000EF90089580ED97E00E9408051092780013
:1014100083E090E090937A00809379008091780047
:101420008823D1F0CF9B18C00E940608892B41F475
:101430008091770044E063E090E00E94AD0408955D
:101440008091790090917A0083709927892B11F40B
:101450000E94660910927800CF9906C01092780019
:1014600010927A0010927900CF9902C09D9B57C0CC
:101470008091770090E0FC013397EA33F10508F0A2
:1014800044C0EB5AFE4F0C94DA0A88E097E00E94C1
:1014900008053BC080E496E00E94080536C088E756
:1014A00095E00E94080531C080EB94E00E94080599
:1014B0002CC088EE93E00E94080527C084E893E0E2
:1014C0000E94080522C080E293E00E9408051DC02A
:1014D0008CEB92E00E94080518C088E592E00E941B
:1014E000080513C084EF91E00E9408050EC080E952
:1014F00091E00E94080509C08CE291E00E94080575
:1015000004C088EC90E00E9408058091770044E0D8
:1015100063E090E00E94AD040E9479047FCF0895BB
:101520008FEF8BBB88BB85BB82BB8FE78ABB87BB3A
:1015300014BA81BB1092A1001092A2001092A300D5
:101540001092A400ECE7F0E083E890E01192E81735
:10155000F907E1F78EB588608EBD84E090E00E94C7
:1015600008058EB584608EBD89B7806189BF789487
:10157000B79B0E9435050E9492060E9488060E9431
:1015800059070E94020A0E949206F9CF97FB072E84
:1015900016F4009407D077FD09D00E94EF0A07FCEB
:1015A00005D03EF4909581959F4F08957095619573
:1015B0007F4F0895EE0FFF1F0590F491E02D0994E1
:1015C000A29FB001B39FC001A39F700D811D112484
:1015D000911DB29F700D811D1124911D0895AA1BAC
:1015E000BB1B51E107C0AA1FBB1FA617B70710F00E
:1015F000A61BB70B881F991F5A95A9F78095909540
:10160000BC01CD0108958F929F92AF92BF92CF926D
:10161000DF92EF92FF92CF93DF93EC0168817981A3
:101620008A819B81611571058105910521F464E230
:1016300079ED8BE597E02DE133EF41E050E00E943A
:10164000610B49015A019B01AC01A7EAB1E40E9478
:10165000800B6B017C01ACEEB4EFA50194010E94FC
:101660008E0BC60ED71EE81EF91EF7FE06C081E0DF
:10167000C81AD108E10880E8F80AC882D982EA824B
:10168000FB82C6019F77DF91CF91FF90EF90DF90B3
:10169000CF90BF90AF909F908F9008950E94030BC2
:1016A000089580E690E00E94030B0895A0E0B0E06A
:1016B0008093600090936100A0936200B0936300F8
:1016C0000895052E97FB1EF400940E94780B57FD99
:1016D00007D00E94930B07FC03D04EF40C94780BB8
:1016E00050954095309521953F4F4F4F5F4F08954E
:1016F00090958095709561957F4F8F4F9F4F08957E
:101700000E94E00AA59F900DB49F900DA49F800DAC
:10171000911D11240895B7FF0C94800B0E94800B3B
:10172000821B930B0895A1E21A2EAA1BBB1BFD017D
:101730000DC0AA1FBB1FEE1FFF1FA217B307E407B0
:10174000F50720F0A21BB30BE40BF50B661F771F08
:10175000881F991F1A9469F76095709580959095E8
:0E1760009B01AC01BD01CF010895F894FFCFAD
:10176E00010000003F065B4F666D7D277F6F777C23
:06177E00395E79710000E4
:00000001FF
