:100000000C942A000C9447000C9447000C94470071
:100010000C9447000C9447000C9447000C94470044
:100020000C9447000C9447000C9447000C94470034
:100030000C9447000C9447000C9447000C94470024
:100040000C9447000C9447000C9447000C94470014
:100050000C94470011241FBECFE5D4E0DEBFCDBF16
:1000600010E0A0E6B0E0E4E0F2E002C005900D92FE
:10007000A237B107D9F720E0A2E7B0E001C01D9296
:10008000A737B207E1F70E949E000C9400010C9480
:1000900000009BB390789BBB9BB38F77982B9BBB47
:1000A0000895CF93CBB38FEF88BB809172000E94ED
:1000B00049008EEF88BB8FEC97E00197F1F700C005
:1000C00000008FEF88BB809173000E9449008DEF84
:1000D00088BB8FEC97E00197F1F700C000008FEF2D
:1000E00088BB809174000E9449008BEF88BB8FEC25
:1000F00097E00197F1F700C000008FEF88BB809177
:1001000075000E94490087EF88BB8FEC97E001974C
:10011000F1F700C000008FEF88BB809176000E944D
:1001200049008FEE88BB8FEC97E00197F1F700C094
:1001300000008FEF88BBCBBBCF9108958FEF8BBBB7
:1001400088BB85BB82BB1ABA8FE187BB1092720055
:100150001092730010927400109275001092760045
:10016000E12CF12C0F2EF7E7CF2EF0E0DF2EF02D53
:1001700002E710E00E945100CF9903C08FEFE81A08
:10018000F80AE601F7019F01ADECBCEC0E94F1001A
:10019000AC01569547955695479556954795CA0192
:1001A000880F991F440F551F440F551F440F551FAB
:1001B000480F591FCF01841B950BAC010E94F10021
:1001C000FC01F695E795F695E795F695E7955527A1
:1001D000DA01A05ABF4F8C918A93C017D10799F6C4
:1001E000C9CFA29FB001B39FC001A39F700D811D15
:1001F0001124911DB29F700D811D1124911D089530
:04020000F894FFCFA0
:100204003F065B4F666D7D277F6F777C395E797122
:020214000000E8
:00000001FF
