:100000000C9438000C9455000C9455000C94550039
:100010000C9455000C9455000C9455000C9455000C
:100020000C9455000C9455000C9455000C945500FC
:100030000C9455000C9455000C9455000C945500EC
:100040000C9455000C9455000C9455000C945500DC
:100050000C945500600062006400660068006A004D
:100060006C00770079007B007D007F0081008300B9
:1000700011241FBECFE5D4E0DEBFCDBF10E0A0E667
:10008000B0E0EEE4F3E002C005900D92A237B107B4
:10009000D9F720E0A2E7B0E001C01D92AE37B20769
:1000A000E1F70E9435010C94A5010C94000090E04A
:1000B0008730910590F4FC01E65DFF4F0C949001B0
:1000C000DF980895C7980895C6980895C59808952B
:1000D000A9980895A89808959798089590E0873072
:1000E000910590F4FC01EF5CFF4F0C949001DF9AB6
:1000F0000895C79A0895C69A0895C59A0895A99A29
:100100000895A89A0895979A0895CF92DF92EF9252
:10011000FF920F931F93CF93DF9302E710E0C0E0AD
:10012000D0E0CC24C394D12C82B3807882BBF80178
:1001300091918F0182B3892B82BB8C2F0E94570033
:10014000C53038F58BB380788BBB9BB3FE01E75885
:10015000FF4F8081892B8BBB88B376010C2E02C0A8
:10016000EE0CFF1C0A94E2F79E2D9095892388BB24
:100170008FEC97E00197F1F700C000008C2F0E94F0
:100180006E0088B3E82AE8BA2196C730D10561F637
:100190000AC0EFECF7E03197F1F700C000008C2FB8
:1001A0000E946E00F1CFDF91CF911F910F91FF90D0
:1001B000EF90DF90CF900895FF920F931F93CF930E
:1001C000DF93E2E7F0E0A5E0B0E061E070E0689482
:1001D000FF24F2F800E085B3EB010A2E02C0CC0F39
:1001E000DD1F0A94E2F71C2F1095812385BB84B391
:1001F0008C2B84BB00008F2D902F23B330E0AC01FB
:100200004250510902C0359527954A95E2F720FDE5
:100210000CC09B01082E02C0220F331F0A94E2F784
:1002200020953081232320830AC040819B01082E22
:1002300002C0220F331F0A94E2F7242B2083019679
:1002400087309105D1F684B3182314BB85B3C82B2E
:10025000C5BB11963196A830B10509F0BCCFDF912E
:10026000CF911F910F91FF9008958FEF8BBB88BBAB
:1002700085BB82BB8ABB87BB93E094BB81BB1092DA
:10028000790010927A0010927B0010927C00E2E7D5
:10029000F0E089E790E01192E817F907E1F7E12C27
:1002A000F12C0F2EFEE7CF2EF0E0DF2EF02D09E728
:1002B00010E00E9485008FEFE81AF80AE601F701C6
:1002C0009F01ADECBCEC0E949601AC0156954795A0
:1002D0005695479556954795CA01880F991F440F23
:1002E000551F440F551F440F551F480F591FCF016D
:1002F000841B950BAC010E949601FC01F695E795D5
:10030000F695E795F695E7955527DA01A05ABF4F80
:100310008C918A93C017D10799F60E94DC00C9CF4F
:10032000EE0FFF1F0590F491E02D0994A29FB001FC
:10033000B39FC001A39F700D811D1124911DB29F19
:0E034000700D811D1124911D0895F894FFCFBA
:10034E003F065B4F666D7D277F6F777C395E7971D7
:02035E0000009D
:00000001FF
