:100000000C942A000C9447000C9447000C94470071
:100010000C9447000C9447000C94E9000C944700A2
:100020000C9447000C9447000C9447000C94470034
:100030000C9447000C9447000C9447000C94470024
:100040000C9447000C9447000C9447000C94470014
:100050000C94470011241FBECFE5D4E0DEBFCDBF16
:1000600010E0A0E6B0E0EAEFF2E002C005900D92E9
:10007000A237B107D9F720E0A2E7B0E001C01D9296
:10008000A038B207E1F70E9400010C947B010C94A8
:100090000000E4E7F0E080E090E041E050E022B3CF
:1000A000207822BB282F619132B3362B32BB8530AA
:1000B00050F43BB330783BBB6BB3DC01A558BF4F6A
:1000C0003C91362B3BBB68B3DA0102C0AA0FBB1FC1
:1000D0002A95E2F79D013A2F3095362338BBAFE9D8
:1000E000BFE01197F1F700C0000038B3232B28BB05
:1000F00001968730910599F608950F931F93CF933A
:10010000DF93FC01842F992787FD9095062F10E03F
:100110000150110908171907ACF5EC01C558DF4F5C
:100120009F01ADECBCEC0E946C019C0136952795BB
:100130003695279536952795C901880F991F220F67
:10014000331F220F331F220F331F280F391FDF01E8
:10015000A21BB30BA05ABF4F8C9188839F01ADECBB
:10016000BCEC0E946C01FC01F695E795F695E795CD
:10017000F695E7954150842F992787FD90950817AC
:1001800019075CF2DF91CF911F910F910895F894B8
:1001900099E790937B0090E590937C0090937D008D
:1001A00044E063E090E00E947D000E944900FDCFA2
:1001B0009C0123703327232B49F44FE1489F900182
:1001C000499F300D11243BBD2ABD089581E00E9456
:1001D000C7001F920F920FB60F9211248F939F9317
:1001E00080917200909173000196909373008093B8
:1001F00072009F918F910F900FBE0F901F901895D6
:100200008FEF8BBB88BB85BB82BB8FE78ABB87BB6D
:1002100014BA81BB10927B0010927C0010927D007A
:1002200010927E000F2EF4E76F2EF0E07F2EF02D5F
:100230000F2EFBE7AF2EF0E0BF2EF02DF301119251
:10024000EA15FB05E1F78EB588608EBD84E690E087
:100250000E94D8008EB584608EBD89B7806189BF49
:1002600078940F2EF6E7CF2EF0E0DF2EF02D0F2E34
:10027000F7E7EF2EF0E0FF2EF02D04E710E0C5E7E2
:10028000D0E0962C872C87990AC083B38695F80115
:10029000808383B3880F880F880F88830AC083B355
:1002A0008695F601808383B3880F880F880FF70146
:1002B0008083CF9906C0E92DF82D1192AE16BF06A6
:1002C000E1F744E060E080917200909173000E9439
:1002D0007D000E944900D7CFA29FB001B39FC0010B
:1002E000A39F700D811D1124911DB29F700D811D62
:0A02F0001124911D0895F894FFCF2A
:1002FA003F065B4F666D7D277F6F777C395E79712C
:02030A000000F1
:00000001FF
