:100000000C9434000C9451000C9451000C94510049
:100010000C9451000C9451000C9451000C9451001C
:100020000C9451000C9451000C9451000C9451000C
:100030000C9451000C9451000C9451000C945100FC
:100040000C9451000C9451000C9451000C945100EC
:100050000C9451000B010E01110113011501170140
:1000600019011C011F01220111241FBECFE5D4E09C
:10007000DEBFCDBF10E0A0E6B0E0E4EEF2E002C0EB
:1000800005900D92A036B107D9F720E0A0E6B0E0C8
:1000900001C01D92A536B207E1F70E94A9000C9499
:1000A00070010C94000080959BB390789BBB9BB330
:1000B0008F77892B8BBB0895CF93CBB38FEF88BB02
:1000C000809160000E9453008FEE88BB8FEC97E018
:1000D0000197F1F700C000008FEF88BB80916100AD
:1000E0000E94530087EF88BB8FEC97E00197F1F7F0
:1000F00000C000008FEF88BB809162000E94530017
:100100008BEF88BB8FEC97E00197F1F700C0000000
:100110008FEF88BB809163000E9453008DEF88BBF6
:100120008FEC97E00197F1F700C000008FEF88BBDC
:10013000809164000E9453008EEF88BB8FEC97E0A3
:100140000197F1F700C000008FEF88BBCBBBCF91C8
:1001500008958FEF8BBB88BB85BB82BB1ABA9FE12A
:1001600097BB8093600080936100809362008093CE
:10017000630080936400C12CD12C76010F2EF4E62D
:100180006F2EF0E07F2EF02D0F2EFFE52F2EF0E0EA
:100190003F2EF02D0F2EFAE08F2E912CA12CB12C9A
:1001A000F02D0E945C00CF9912C080E4C81682E452
:1001B000D8068FE0E806F10434F48FEFC81AD80AA5
:1001C000E80AF80A04C0C12CD12CE12CF12CE3017F
:1001D0002C2D3D2D4E2D5F2D0F2EF1E94F2EF02DA4
:1001E0000F2EF2EB5F2EF02D04E914EC622F732F2B
:1001F000842F952FA50194010E942901CB01AA27E4
:1002000097FDA095BA2F8A309105F0F4FC01E65DC8
:10021000FF4F0C94480188E8888316C08EEB8883D2
:1002200013C0188311C008830FC058820DC04882C4
:100230000BC081E8888308C088EB888305C080E80C
:10024000888302C080E988832197C215D30571F69F
:10025000A8CF052E97FB1EF400940E94400157FD85
:1002600007D00E944E0107FC03D04EF40C944001CD
:1002700050954095309521953F4F4F4F5F4F0895D2
:1002800090958095709561957F4F8F4F9F4F089502
:10029000EE0FFF1F0590F491E02D0994A1E21A2EB4
:1002A000AA1BBB1BFD010DC0AA1FBB1FEE1FFF1F1A
:1002B000A217B307E407F50720F0A21BB30BE40B6A
:1002C000F50B661F771F881F991F1A9469F76095B1
:1002D0007095809590959B01AC01BD01CF0108956B
:0402E000F894FFCFC0
:00000001FF
